{
	"contract-917f614593.sol": {
		"Caller": {
			"abi": [
				{
					"inputs": [
						{
							"internalType": "contract Test",
							"name": "test",
							"type": "address"
						}
					],
					"name": "callTest",
					"outputs": [
						{
							"internalType": "bool",
							"name": "",
							"type": "bool"
						}
					],
					"stateMutability": "nonpayable",
					"type": "function"
				}
			],
			"devdoc": {
				"kind": "dev",
				"methods": {},
				"version": 1
			},
			"evm": {
				"assembly": "    /* \"contract-917f614593.sol\":975:1678  contract Caller {... */\n  mstore(0x40, 0x80)\n  callvalue\n  dup1\n  iszero\n  tag_1\n  jumpi\n  0x00\n  dup1\n  revert\ntag_1:\n  pop\n  dataSize(sub_0)\n  dup1\n  dataOffset(sub_0)\n  0x00\n  codecopy\n  0x00\n  return\nstop\n\nsub_0: assembly {\n        /* \"contract-917f614593.sol\":975:1678  contract Caller {... */\n      mstore(0x40, 0x80)\n      callvalue\n      dup1\n      iszero\n      tag_1\n      jumpi\n      0x00\n      dup1\n      revert\n    tag_1:\n      pop\n      jumpi(tag_2, lt(calldatasize, 0x04))\n      shr(0xe0, calldataload(0x00))\n      dup1\n      0x32eb12f1\n      eq\n      tag_3\n      jumpi\n    tag_2:\n      0x00\n      dup1\n      revert\n        /* \"contract-917f614593.sol\":997:1675  function callTest(Test test) public returns (bool) {... */\n    tag_3:\n      tag_4\n      0x04\n      dup1\n      calldatasize\n      sub\n      dup2\n      add\n      swap1\n      tag_5\n      swap2\n      swap1\n      tag_6\n      jump\t// in\n    tag_5:\n      tag_7\n      jump\t// in\n    tag_4:\n      mload(0x40)\n      tag_8\n      swap2\n      swap1\n      tag_9\n      jump\t// in\n    tag_8:\n      mload(0x40)\n      dup1\n      swap2\n      sub\n      swap1\n      return\n    tag_7:\n        /* \"contract-917f614593.sol\":1042:1046  bool */\n      0x00\n        /* \"contract-917f614593.sol\":1059:1071  bool success */\n      dup1\n        /* \"contract-917f614593.sol\":1084:1088  test */\n      dup3\n        /* \"contract-917f614593.sol\":1076:1094  address(test).call */\n      0xffffffffffffffffffffffffffffffffffffffff\n      and\n        /* \"contract-917f614593.sol\":1095:1143  abi.encodeWithSignature(\"nonExistingFunction()\") */\n      add(0x24, mload(0x40))\n      mload(0x40)\n      0x20\n      dup2\n      dup4\n      sub\n      sub\n      dup2\n      mstore\n      swap1\n      0x40\n      mstore\n      and(not(0xffffffffffffffffffffffffffffffffffffffffffffffffffffffff), 0xf85396d700000000000000000000000000000000000000000000000000000000)\n      0x20\n      dup3\n      add\n      dup1\n      mload\n      0xffffffffffffffffffffffffffffffffffffffffffffffffffffffff\n      dup4\n      dup2\n      dup4\n      and\n      or\n      dup4\n      mstore\n      pop\n      pop\n      pop\n      pop\n        /* \"contract-917f614593.sol\":1076:1144  address(test).call(abi.encodeWithSignature(\"nonExistingFunction()\")) */\n      mload(0x40)\n      tag_11\n      swap2\n      swap1\n      tag_12\n      jump\t// in\n    tag_11:\n      0x00\n      mload(0x40)\n      dup1\n      dup4\n      sub\n      dup2\n      0x00\n      dup7\n      gas\n      call\n      swap2\n      pop\n      pop\n      returndatasize\n      dup1\n      0x00\n      dup2\n      eq\n      tag_15\n      jumpi\n      mload(0x40)\n      swap2\n      pop\n      and(add(returndatasize, 0x3f), not(0x1f))\n      dup3\n      add\n      0x40\n      mstore\n      returndatasize\n      dup3\n      mstore\n      returndatasize\n      0x00\n      0x20\n      dup5\n      add\n      returndatacopy\n      jump(tag_14)\n    tag_15:\n      0x60\n      swap2\n      pop\n    tag_14:\n      pop\n        /* \"contract-917f614593.sol\":1058:1144  (bool success,) = address(test).call(abi.encodeWithSignature(\"nonExistingFunction()\")) */\n      pop\n      swap1\n      pop\n        /* \"contract-917f614593.sol\":1162:1169  success */\n      dup1\n        /* \"contract-917f614593.sol\":1154:1170  require(success) */\n      tag_16\n      jumpi\n      0x00\n      dup1\n      revert\n    tag_16:\n        /* \"contract-917f614593.sol\":1456:1483  address payable testPayable */\n      0x00\n        /* \"contract-917f614593.sol\":1502:1506  test */\n      dup4\n        /* \"contract-917f614593.sol\":1456:1508  address payable testPayable = payable(address(test)) */\n      swap1\n      pop\n        /* \"contract-917f614593.sol\":1643:1654  testPayable */\n      dup1\n        /* \"contract-917f614593.sol\":1643:1659  testPayable.send */\n      0xffffffffffffffffffffffffffffffffffffffff\n      and\n        /* \"contract-917f614593.sol\":1643:1668  testPayable.send(2 ether) */\n      0x08fc\n        /* \"contract-917f614593.sol\":1660:1667  2 ether */\n      0x1bc16d674ec80000\n        /* \"contract-917f614593.sol\":1643:1668  testPayable.send(2 ether) */\n      swap1\n      dup2\n      iszero\n      mul\n      swap1\n      mload(0x40)\n      0x00\n      mload(0x40)\n      dup1\n      dup4\n      sub\n      dup2\n      dup6\n      dup9\n      dup9\n      call\n      swap4\n      pop\n      pop\n      pop\n      pop\n        /* \"contract-917f614593.sol\":1636:1668  return testPayable.send(2 ether) */\n      swap3\n      pop\n      pop\n      pop\n        /* \"contract-917f614593.sol\":997:1675  function callTest(Test test) public returns (bool) {... */\n      swap2\n      swap1\n      pop\n      jump\t// out\n        /* \"#utility.yul\":88:205   */\n    tag_19:\n        /* \"#utility.yul\":197:198   */\n      0x00\n        /* \"#utility.yul\":194:195   */\n      dup1\n        /* \"#utility.yul\":187:199   */\n      revert\n        /* \"#utility.yul\":334:460   */\n    tag_21:\n        /* \"#utility.yul\":371:378   */\n      0x00\n        /* \"#utility.yul\":411:453   */\n      0xffffffffffffffffffffffffffffffffffffffff\n        /* \"#utility.yul\":404:409   */\n      dup3\n        /* \"#utility.yul\":400:454   */\n      and\n        /* \"#utility.yul\":389:454   */\n      swap1\n      pop\n        /* \"#utility.yul\":334:460   */\n      swap2\n      swap1\n      pop\n      jump\t// out\n        /* \"#utility.yul\":466:562   */\n    tag_22:\n        /* \"#utility.yul\":503:510   */\n      0x00\n        /* \"#utility.yul\":532:556   */\n      tag_38\n        /* \"#utility.yul\":550:555   */\n      dup3\n        /* \"#utility.yul\":532:556   */\n      tag_21\n      jump\t// in\n    tag_38:\n        /* \"#utility.yul\":521:556   */\n      swap1\n      pop\n        /* \"#utility.yul\":466:562   */\n      swap2\n      swap1\n      pop\n      jump\t// out\n        /* \"#utility.yul\":568:675   */\n    tag_23:\n        /* \"#utility.yul\":616:623   */\n      0x00\n        /* \"#utility.yul\":645:669   */\n      tag_40\n        /* \"#utility.yul\":663:668   */\n      dup3\n        /* \"#utility.yul\":645:669   */\n      tag_22\n      jump\t// in\n    tag_40:\n        /* \"#utility.yul\":634:669   */\n      swap1\n      pop\n        /* \"#utility.yul\":568:675   */\n      swap2\n      swap1\n      pop\n      jump\t// out\n        /* \"#utility.yul\":681:825   */\n    tag_24:\n        /* \"#utility.yul\":765:800   */\n      tag_42\n        /* \"#utility.yul\":794:799   */\n      dup2\n        /* \"#utility.yul\":765:800   */\n      tag_23\n      jump\t// in\n    tag_42:\n        /* \"#utility.yul\":758:763   */\n      dup2\n        /* \"#utility.yul\":755:801   */\n      eq\n        /* \"#utility.yul\":745:819   */\n      tag_43\n      jumpi\n        /* \"#utility.yul\":815:816   */\n      0x00\n        /* \"#utility.yul\":812:813   */\n      dup1\n        /* \"#utility.yul\":805:817   */\n      revert\n        /* \"#utility.yul\":745:819   */\n    tag_43:\n        /* \"#utility.yul\":681:825   */\n      pop\n      jump\t// out\n        /* \"#utility.yul\":831:992   */\n    tag_25:\n        /* \"#utility.yul\":888:893   */\n      0x00\n        /* \"#utility.yul\":926:932   */\n      dup2\n        /* \"#utility.yul\":913:933   */\n      calldataload\n        /* \"#utility.yul\":904:933   */\n      swap1\n      pop\n        /* \"#utility.yul\":942:986   */\n      tag_45\n        /* \"#utility.yul\":980:985   */\n      dup2\n        /* \"#utility.yul\":942:986   */\n      tag_24\n      jump\t// in\n    tag_45:\n        /* \"#utility.yul\":831:992   */\n      swap3\n      swap2\n      pop\n      pop\n      jump\t// out\n        /* \"#utility.yul\":998:1349   */\n    tag_6:\n        /* \"#utility.yul\":1068:1074   */\n      0x00\n        /* \"#utility.yul\":1117:1119   */\n      0x20\n        /* \"#utility.yul\":1105:1114   */\n      dup3\n        /* \"#utility.yul\":1096:1103   */\n      dup5\n        /* \"#utility.yul\":1092:1115   */\n      sub\n        /* \"#utility.yul\":1088:1120   */\n      slt\n        /* \"#utility.yul\":1085:1204   */\n      iszero\n      tag_47\n      jumpi\n        /* \"#utility.yul\":1123:1202   */\n      tag_48\n      tag_19\n      jump\t// in\n    tag_48:\n        /* \"#utility.yul\":1085:1204   */\n    tag_47:\n        /* \"#utility.yul\":1243:1244   */\n      0x00\n        /* \"#utility.yul\":1268:1332   */\n      tag_49\n        /* \"#utility.yul\":1324:1331   */\n      dup5\n        /* \"#utility.yul\":1315:1321   */\n      dup3\n        /* \"#utility.yul\":1304:1313   */\n      dup6\n        /* \"#utility.yul\":1300:1322   */\n      add\n        /* \"#utility.yul\":1268:1332   */\n      tag_25\n      jump\t// in\n    tag_49:\n        /* \"#utility.yul\":1258:1332   */\n      swap2\n      pop\n        /* \"#utility.yul\":1214:1342   */\n      pop\n        /* \"#utility.yul\":998:1349   */\n      swap3\n      swap2\n      pop\n      pop\n      jump\t// out\n        /* \"#utility.yul\":1355:1445   */\n    tag_26:\n        /* \"#utility.yul\":1389:1396   */\n      0x00\n        /* \"#utility.yul\":1432:1437   */\n      dup2\n        /* \"#utility.yul\":1425:1438   */\n      iszero\n        /* \"#utility.yul\":1418:1439   */\n      iszero\n        /* \"#utility.yul\":1407:1439   */\n      swap1\n      pop\n        /* \"#utility.yul\":1355:1445   */\n      swap2\n      swap1\n      pop\n      jump\t// out\n        /* \"#utility.yul\":1451:1560   */\n    tag_27:\n        /* \"#utility.yul\":1532:1553   */\n      tag_52\n        /* \"#utility.yul\":1547:1552   */\n      dup2\n        /* \"#utility.yul\":1532:1553   */\n      tag_26\n      jump\t// in\n    tag_52:\n        /* \"#utility.yul\":1527:1530   */\n      dup3\n        /* \"#utility.yul\":1520:1554   */\n      mstore\n        /* \"#utility.yul\":1451:1560   */\n      pop\n      pop\n      jump\t// out\n        /* \"#utility.yul\":1566:1776   */\n    tag_9:\n        /* \"#utility.yul\":1653:1657   */\n      0x00\n        /* \"#utility.yul\":1691:1693   */\n      0x20\n        /* \"#utility.yul\":1680:1689   */\n      dup3\n        /* \"#utility.yul\":1676:1694   */\n      add\n        /* \"#utility.yul\":1668:1694   */\n      swap1\n      pop\n        /* \"#utility.yul\":1704:1769   */\n      tag_54\n        /* \"#utility.yul\":1766:1767   */\n      0x00\n        /* \"#utility.yul\":1755:1764   */\n      dup4\n        /* \"#utility.yul\":1751:1768   */\n      add\n        /* \"#utility.yul\":1742:1748   */\n      dup5\n        /* \"#utility.yul\":1704:1769   */\n      tag_27\n      jump\t// in\n    tag_54:\n        /* \"#utility.yul\":1566:1776   */\n      swap3\n      swap2\n      pop\n      pop\n      jump\t// out\n        /* \"#utility.yul\":1782:1880   */\n    tag_28:\n        /* \"#utility.yul\":1833:1839   */\n      0x00\n        /* \"#utility.yul\":1867:1872   */\n      dup2\n        /* \"#utility.yul\":1861:1873   */\n      mload\n        /* \"#utility.yul\":1851:1873   */\n      swap1\n      pop\n        /* \"#utility.yul\":1782:1880   */\n      swap2\n      swap1\n      pop\n      jump\t// out\n        /* \"#utility.yul\":1886:2033   */\n    tag_29:\n        /* \"#utility.yul\":1987:1998   */\n      0x00\n        /* \"#utility.yul\":2024:2027   */\n      dup2\n        /* \"#utility.yul\":2009:2027   */\n      swap1\n      pop\n        /* \"#utility.yul\":1886:2033   */\n      swap3\n      swap2\n      pop\n      pop\n      jump\t// out\n        /* \"#utility.yul\":2039:2178   */\n    tag_30:\n        /* \"#utility.yul\":2128:2134   */\n      dup3\n        /* \"#utility.yul\":2123:2126   */\n      dup2\n        /* \"#utility.yul\":2118:2121   */\n      dup4\n        /* \"#utility.yul\":2112:2135   */\n      mcopy\n        /* \"#utility.yul\":2169:2170   */\n      0x00\n        /* \"#utility.yul\":2160:2166   */\n      dup4\n        /* \"#utility.yul\":2155:2158   */\n      dup4\n        /* \"#utility.yul\":2151:2167   */\n      add\n        /* \"#utility.yul\":2144:2171   */\n      mstore\n        /* \"#utility.yul\":2039:2178   */\n      pop\n      pop\n      pop\n      jump\t// out\n        /* \"#utility.yul\":2184:2570   */\n    tag_31:\n        /* \"#utility.yul\":2288:2291   */\n      0x00\n        /* \"#utility.yul\":2316:2354   */\n      tag_59\n        /* \"#utility.yul\":2348:2353   */\n      dup3\n        /* \"#utility.yul\":2316:2354   */\n      tag_28\n      jump\t// in\n    tag_59:\n        /* \"#utility.yul\":2370:2458   */\n      tag_60\n        /* \"#utility.yul\":2451:2457   */\n      dup2\n        /* \"#utility.yul\":2446:2449   */\n      dup6\n        /* \"#utility.yul\":2370:2458   */\n      tag_29\n      jump\t// in\n    tag_60:\n        /* \"#utility.yul\":2363:2458   */\n      swap4\n      pop\n        /* \"#utility.yul\":2467:2532   */\n      tag_61\n        /* \"#utility.yul\":2525:2531   */\n      dup2\n        /* \"#utility.yul\":2520:2523   */\n      dup6\n        /* \"#utility.yul\":2513:2517   */\n      0x20\n        /* \"#utility.yul\":2506:2511   */\n      dup7\n        /* \"#utility.yul\":2502:2518   */\n      add\n        /* \"#utility.yul\":2467:2532   */\n      tag_30\n      jump\t// in\n    tag_61:\n        /* \"#utility.yul\":2557:2563   */\n      dup1\n        /* \"#utility.yul\":2552:2555   */\n      dup5\n        /* \"#utility.yul\":2548:2564   */\n      add\n        /* \"#utility.yul\":2541:2564   */\n      swap2\n      pop\n        /* \"#utility.yul\":2292:2570   */\n      pop\n        /* \"#utility.yul\":2184:2570   */\n      swap3\n      swap2\n      pop\n      pop\n      jump\t// out\n        /* \"#utility.yul\":2576:2847   */\n    tag_12:\n        /* \"#utility.yul\":2706:2709   */\n      0x00\n        /* \"#utility.yul\":2728:2821   */\n      tag_63\n        /* \"#utility.yul\":2817:2820   */\n      dup3\n        /* \"#utility.yul\":2808:2814   */\n      dup5\n        /* \"#utility.yul\":2728:2821   */\n      tag_31\n      jump\t// in\n    tag_63:\n        /* \"#utility.yul\":2721:2821   */\n      swap2\n      pop\n        /* \"#utility.yul\":2838:2841   */\n      dup2\n        /* \"#utility.yul\":2831:2841   */\n      swap1\n      pop\n        /* \"#utility.yul\":2576:2847   */\n      swap3\n      swap2\n      pop\n      pop\n      jump\t// out\n\n    auxdata: 0xa264697066735822122060887663cab4d7a1957321b0ad88696c7ad085e9ab16b0602ea0a92967f1632164736f6c63430008190033\n}\n",
				"bytecode": {
					"linkReferences": {},
					"object": "6080604052348015600e575f80fd5b506103058061001c5f395ff3fe608060405234801561000f575f80fd5b5060043610610029575f3560e01c806332eb12f11461002d575b5f80fd5b61004760048036038101906100429190610209565b61005d565b604051610054919061024e565b60405180910390f35b5f808273ffffffffffffffffffffffffffffffffffffffff166040516024016040516020818303038152906040527ff85396d7000000000000000000000000000000000000000000000000000000007bffffffffffffffffffffffffffffffffffffffffffffffffffffffff19166020820180517bffffffffffffffffffffffffffffffffffffffffffffffffffffffff838183161783525050505060405161010691906102b9565b5f604051808303815f865af19150503d805f811461013f576040519150601f19603f3d011682016040523d82523d5f602084013e610144565b606091505b5050905080610151575f80fd5b5f8390508073ffffffffffffffffffffffffffffffffffffffff166108fc671bc16d674ec8000090811502906040515f60405180830381858888f1935050505092505050919050565b5f80fd5b5f73ffffffffffffffffffffffffffffffffffffffff82169050919050565b5f6101c78261019e565b9050919050565b5f6101d8826101bd565b9050919050565b6101e8816101ce565b81146101f2575f80fd5b50565b5f81359050610203816101df565b92915050565b5f6020828403121561021e5761021d61019a565b5b5f61022b848285016101f5565b91505092915050565b5f8115159050919050565b61024881610234565b82525050565b5f6020820190506102615f83018461023f565b92915050565b5f81519050919050565b5f81905092915050565b8281835e5f83830152505050565b5f61029382610267565b61029d8185610271565b93506102ad81856020860161027b565b80840191505092915050565b5f6102c48284610289565b91508190509291505056fea264697066735822122060887663cab4d7a1957321b0ad88696c7ad085e9ab16b0602ea0a92967f1632164736f6c63430008190033",
					"opcodes": "PUSH1 0x80 PUSH1 0x40 MSTORE CALLVALUE DUP1 ISZERO PUSH1 0xE JUMPI PUSH0 DUP1 REVERT JUMPDEST POP PUSH2 0x305 DUP1 PUSH2 0x1C PUSH0 CODECOPY PUSH0 RETURN INVALID PUSH1 0x80 PUSH1 0x40 MSTORE CALLVALUE DUP1 ISZERO PUSH2 0xF JUMPI PUSH0 DUP1 REVERT JUMPDEST POP PUSH1 0x4 CALLDATASIZE LT PUSH2 0x29 JUMPI PUSH0 CALLDATALOAD PUSH1 0xE0 SHR DUP1 PUSH4 0x32EB12F1 EQ PUSH2 0x2D JUMPI JUMPDEST PUSH0 DUP1 REVERT JUMPDEST PUSH2 0x47 PUSH1 0x4 DUP1 CALLDATASIZE SUB DUP2 ADD SWAP1 PUSH2 0x42 SWAP2 SWAP1 PUSH2 0x209 JUMP JUMPDEST PUSH2 0x5D JUMP JUMPDEST PUSH1 0x40 MLOAD PUSH2 0x54 SWAP2 SWAP1 PUSH2 0x24E JUMP JUMPDEST PUSH1 0x40 MLOAD DUP1 SWAP2 SUB SWAP1 RETURN JUMPDEST PUSH0 DUP1 DUP3 PUSH20 0xFFFFFFFFFFFFFFFFFFFFFFFFFFFFFFFFFFFFFFFF AND PUSH1 0x40 MLOAD PUSH1 0x24 ADD PUSH1 0x40 MLOAD PUSH1 0x20 DUP2 DUP4 SUB SUB DUP2 MSTORE SWAP1 PUSH1 0x40 MSTORE PUSH32 0xF85396D700000000000000000000000000000000000000000000000000000000 PUSH28 0xFFFFFFFFFFFFFFFFFFFFFFFFFFFFFFFFFFFFFFFFFFFFFFFFFFFFFFFF NOT AND PUSH1 0x20 DUP3 ADD DUP1 MLOAD PUSH28 0xFFFFFFFFFFFFFFFFFFFFFFFFFFFFFFFFFFFFFFFFFFFFFFFFFFFFFFFF DUP4 DUP2 DUP4 AND OR DUP4 MSTORE POP POP POP POP PUSH1 0x40 MLOAD PUSH2 0x106 SWAP2 SWAP1 PUSH2 0x2B9 JUMP JUMPDEST PUSH0 PUSH1 0x40 MLOAD DUP1 DUP4 SUB DUP2 PUSH0 DUP7 GAS CALL SWAP2 POP POP RETURNDATASIZE DUP1 PUSH0 DUP2 EQ PUSH2 0x13F JUMPI PUSH1 0x40 MLOAD SWAP2 POP PUSH1 0x1F NOT PUSH1 0x3F RETURNDATASIZE ADD AND DUP3 ADD PUSH1 0x40 MSTORE RETURNDATASIZE DUP3 MSTORE RETURNDATASIZE PUSH0 PUSH1 0x20 DUP5 ADD RETURNDATACOPY PUSH2 0x144 JUMP JUMPDEST PUSH1 0x60 SWAP2 POP JUMPDEST POP POP SWAP1 POP DUP1 PUSH2 0x151 JUMPI PUSH0 DUP1 REVERT JUMPDEST PUSH0 DUP4 SWAP1 POP DUP1 PUSH20 0xFFFFFFFFFFFFFFFFFFFFFFFFFFFFFFFFFFFFFFFF AND PUSH2 0x8FC PUSH8 0x1BC16D674EC80000 SWAP1 DUP2 ISZERO MUL SWAP1 PUSH1 0x40 MLOAD PUSH0 PUSH1 0x40 MLOAD DUP1 DUP4 SUB DUP2 DUP6 DUP9 DUP9 CALL SWAP4 POP POP POP POP SWAP3 POP POP POP SWAP2 SWAP1 POP JUMP JUMPDEST PUSH0 DUP1 REVERT JUMPDEST PUSH0 PUSH20 0xFFFFFFFFFFFFFFFFFFFFFFFFFFFFFFFFFFFFFFFF DUP3 AND SWAP1 POP SWAP2 SWAP1 POP JUMP JUMPDEST PUSH0 PUSH2 0x1C7 DUP3 PUSH2 0x19E JUMP JUMPDEST SWAP1 POP SWAP2 SWAP1 POP JUMP JUMPDEST PUSH0 PUSH2 0x1D8 DUP3 PUSH2 0x1BD JUMP JUMPDEST SWAP1 POP SWAP2 SWAP1 POP JUMP JUMPDEST PUSH2 0x1E8 DUP2 PUSH2 0x1CE JUMP JUMPDEST DUP2 EQ PUSH2 0x1F2 JUMPI PUSH0 DUP1 REVERT JUMPDEST POP JUMP JUMPDEST PUSH0 DUP2 CALLDATALOAD SWAP1 POP PUSH2 0x203 DUP2 PUSH2 0x1DF JUMP JUMPDEST SWAP3 SWAP2 POP POP JUMP JUMPDEST PUSH0 PUSH1 0x20 DUP3 DUP5 SUB SLT ISZERO PUSH2 0x21E JUMPI PUSH2 0x21D PUSH2 0x19A JUMP JUMPDEST JUMPDEST PUSH0 PUSH2 0x22B DUP5 DUP3 DUP6 ADD PUSH2 0x1F5 JUMP JUMPDEST SWAP2 POP POP SWAP3 SWAP2 POP POP JUMP JUMPDEST PUSH0 DUP2 ISZERO ISZERO SWAP1 POP SWAP2 SWAP1 POP JUMP JUMPDEST PUSH2 0x248 DUP2 PUSH2 0x234 JUMP JUMPDEST DUP3 MSTORE POP POP JUMP JUMPDEST PUSH0 PUSH1 0x20 DUP3 ADD SWAP1 POP PUSH2 0x261 PUSH0 DUP4 ADD DUP5 PUSH2 0x23F JUMP JUMPDEST SWAP3 SWAP2 POP POP JUMP JUMPDEST PUSH0 DUP2 MLOAD SWAP1 POP SWAP2 SWAP1 POP JUMP JUMPDEST PUSH0 DUP2 SWAP1 POP SWAP3 SWAP2 POP POP JUMP JUMPDEST DUP3 DUP2 DUP4 MCOPY PUSH0 DUP4 DUP4 ADD MSTORE POP POP POP JUMP JUMPDEST PUSH0 PUSH2 0x293 DUP3 PUSH2 0x267 JUMP JUMPDEST PUSH2 0x29D DUP2 DUP6 PUSH2 0x271 JUMP JUMPDEST SWAP4 POP PUSH2 0x2AD DUP2 DUP6 PUSH1 0x20 DUP7 ADD PUSH2 0x27B JUMP JUMPDEST DUP1 DUP5 ADD SWAP2 POP POP SWAP3 SWAP2 POP POP JUMP JUMPDEST PUSH0 PUSH2 0x2C4 DUP3 DUP5 PUSH2 0x289 JUMP JUMPDEST SWAP2 POP DUP2 SWAP1 POP SWAP3 SWAP2 POP POP JUMP INVALID LOG2 PUSH5 0x6970667358 0x22 SLT KECCAK256 PUSH1 0x88 PUSH23 0x63CAB4D7A1957321B0AD88696C7AD085E9AB16B0602EA0 0xA9 0x29 PUSH8 0xF1632164736F6C63 NUMBER STOP ADDMOD NOT STOP CALLER "
				},
				"gasEstimates": {
					"creation": {
						"codeDepositCost": "154600",
						"executionCost": "200",
						"totalCost": "154800"
					},
					"external": {
						"callTest(address)": "infinite"
					}
				},
				"methodIdentifiers": {
					"callTest(address)": "32eb12f1"
				}
			},
			"storageLayout": {
				"storage": [],
				"types": null
			},
			"userdoc": {
				"kind": "user",
				"methods": {},
				"version": 1
			}
		}
	}
}